{
  "contractName": "Pair",
  "abi": [
    {
      "inputs": [],
      "stateMutability": "nonpayable",
      "type": "constructor"
    },
    {
      "anonymous": false,
      "inputs": [
        {
          "indexed": true,
          "internalType": "address",
          "name": "user",
          "type": "address"
        },
        {
          "indexed": true,
          "internalType": "address",
          "name": "token",
          "type": "address"
        },
        {
          "indexed": false,
          "internalType": "uint256",
          "name": "amount",
          "type": "uint256"
        }
      ],
      "name": "BuyToken",
      "type": "event"
    },
    {
      "anonymous": false,
      "inputs": [
        {
          "indexed": false,
          "internalType": "uint256",
          "name": "amount",
          "type": "uint256"
        }
      ],
      "name": "ExpectedExchangeAmount",
      "type": "event"
    },
    {
      "anonymous": false,
      "inputs": [
        {
          "indexed": false,
          "internalType": "address",
          "name": "user",
          "type": "address"
        },
        {
          "indexed": true,
          "internalType": "address",
          "name": "token1",
          "type": "address"
        },
        {
          "indexed": true,
          "internalType": "address",
          "name": "token2",
          "type": "address"
        },
        {
          "indexed": false,
          "internalType": "uint256",
          "name": "amount1",
          "type": "uint256"
        },
        {
          "indexed": false,
          "internalType": "uint256",
          "name": "amount2",
          "type": "uint256"
        }
      ],
      "name": "SwapFinished",
      "type": "event"
    },
    {
      "inputs": [
        {
          "internalType": "uint256",
          "name": "",
          "type": "uint256"
        }
      ],
      "name": "buyLogs",
      "outputs": [
        {
          "internalType": "address",
          "name": "user",
          "type": "address"
        },
        {
          "internalType": "address",
          "name": "token",
          "type": "address"
        },
        {
          "internalType": "uint256",
          "name": "amount",
          "type": "uint256"
        }
      ],
      "stateMutability": "view",
      "type": "function",
      "constant": true
    },
    {
      "inputs": [],
      "name": "can01",
      "outputs": [
        {
          "internalType": "contract CAN01",
          "name": "",
          "type": "address"
        }
      ],
      "stateMutability": "view",
      "type": "function",
      "constant": true
    },
    {
      "inputs": [],
      "name": "can02",
      "outputs": [
        {
          "internalType": "contract CAN02",
          "name": "",
          "type": "address"
        }
      ],
      "stateMutability": "view",
      "type": "function",
      "constant": true
    },
    {
      "inputs": [],
      "name": "fee",
      "outputs": [
        {
          "internalType": "uint256",
          "name": "",
          "type": "uint256"
        }
      ],
      "stateMutability": "view",
      "type": "function",
      "constant": true
    },
    {
      "inputs": [],
      "name": "name",
      "outputs": [
        {
          "internalType": "string",
          "name": "",
          "type": "string"
        }
      ],
      "stateMutability": "view",
      "type": "function",
      "constant": true
    },
    {
      "inputs": [
        {
          "internalType": "uint256",
          "name": "",
          "type": "uint256"
        }
      ],
      "name": "swapLogs",
      "outputs": [
        {
          "internalType": "address",
          "name": "user",
          "type": "address"
        },
        {
          "internalType": "address",
          "name": "token1",
          "type": "address"
        },
        {
          "internalType": "address",
          "name": "token2",
          "type": "address"
        },
        {
          "internalType": "uint256",
          "name": "amount1",
          "type": "uint256"
        },
        {
          "internalType": "uint256",
          "name": "amount2",
          "type": "uint256"
        }
      ],
      "stateMutability": "view",
      "type": "function",
      "constant": true
    },
    {
      "inputs": [],
      "name": "totalBuys",
      "outputs": [
        {
          "internalType": "uint256",
          "name": "",
          "type": "uint256"
        }
      ],
      "stateMutability": "view",
      "type": "function",
      "constant": true
    },
    {
      "inputs": [],
      "name": "totalSwaps",
      "outputs": [
        {
          "internalType": "uint256",
          "name": "",
          "type": "uint256"
        }
      ],
      "stateMutability": "view",
      "type": "function",
      "constant": true
    },
    {
      "inputs": [
        {
          "internalType": "address",
          "name": "_token1",
          "type": "address"
        },
        {
          "internalType": "address",
          "name": "_token2",
          "type": "address"
        },
        {
          "internalType": "uint256",
          "name": "amount",
          "type": "uint256"
        }
      ],
      "name": "swap",
      "outputs": [],
      "stateMutability": "nonpayable",
      "type": "function"
    },
    {
      "inputs": [
        {
          "internalType": "address",
          "name": "_token",
          "type": "address"
        },
        {
          "internalType": "uint256",
          "name": "amount",
          "type": "uint256"
        }
      ],
      "name": "buy",
      "outputs": [],
      "stateMutability": "payable",
      "type": "function",
      "payable": true
    },
    {
      "inputs": [],
      "name": "balanceOf",
      "outputs": [
        {
          "internalType": "uint256",
          "name": "_can01",
          "type": "uint256"
        },
        {
          "internalType": "uint256",
          "name": "_can02",
          "type": "uint256"
        }
      ],
      "stateMutability": "view",
      "type": "function",
      "constant": true
    },
    {
      "inputs": [],
      "name": "getLogCount",
      "outputs": [
        {
          "internalType": "uint256",
          "name": "buys",
          "type": "uint256"
        },
        {
          "internalType": "uint256",
          "name": "swaps",
          "type": "uint256"
        }
      ],
      "stateMutability": "view",
      "type": "function",
      "constant": true
    },
    {
      "inputs": [
        {
          "internalType": "uint256",
          "name": "pos",
          "type": "uint256"
        }
      ],
      "name": "getBuyLog",
      "outputs": [
        {
          "components": [
            {
              "internalType": "address",
              "name": "user",
              "type": "address"
            },
            {
              "internalType": "address",
              "name": "token",
              "type": "address"
            },
            {
              "internalType": "uint256",
              "name": "amount",
              "type": "uint256"
            }
          ],
          "internalType": "struct Pair.BuyLog",
          "name": "",
          "type": "tuple"
        }
      ],
      "stateMutability": "view",
      "type": "function",
      "constant": true
    },
    {
      "inputs": [
        {
          "internalType": "uint256",
          "name": "pos",
          "type": "uint256"
        }
      ],
      "name": "getSwapLog",
      "outputs": [
        {
          "components": [
            {
              "internalType": "address",
              "name": "user",
              "type": "address"
            },
            {
              "internalType": "address",
              "name": "token1",
              "type": "address"
            },
            {
              "internalType": "address",
              "name": "token2",
              "type": "address"
            },
            {
              "internalType": "uint256",
              "name": "amount1",
              "type": "uint256"
            },
            {
              "internalType": "uint256",
              "name": "amount2",
              "type": "uint256"
            }
          ],
          "internalType": "struct Pair.SwapLog",
          "name": "",
          "type": "tuple"
        }
      ],
      "stateMutability": "view",
      "type": "function",
      "constant": true
    }
  ],
  "bytecode": "0x60806040523480156200001157600080fd5b506040518060400160405280601281526020017f43414e303120262043414e303220506169720000000000000000000000000000815250600190805190602001906200005f929190620001a2565b506003600281905550306000806101000a81548173ffffffffffffffffffffffffffffffffffffffff021916908373ffffffffffffffffffffffffffffffffffffffff160217905550600a604051620000b89062000233565b620000c49190620002c8565b604051809103906000f080158015620000e1573d6000803e3d6000fd5b50600360006101000a81548173ffffffffffffffffffffffffffffffffffffffff021916908373ffffffffffffffffffffffffffffffffffffffff1602179055506014604051620001329062000241565b6200013e919062000328565b604051809103906000f0801580156200015b573d6000803e3d6000fd5b50600460006101000a81548173ffffffffffffffffffffffffffffffffffffffff021916908373ffffffffffffffffffffffffffffffffffffffff160217905550620003aa565b828054620001b09062000374565b90600052602060002090601f016020900481019282620001d4576000855562000220565b82601f10620001ef57805160ff191683800117855562000220565b8280016001018555821562000220579182015b828111156200021f57825182559160200191906001019062000202565b5b5090506200022f91906200024f565b5090565b611ade806200291c83390190565b611ade80620043fa83390190565b5b808211156200026a57600081600090555060010162000250565b5090565b6000819050919050565b600060ff82169050919050565b6000819050919050565b6000620002b0620002aa620002a4846200026e565b62000285565b62000278565b9050919050565b620002c2816200028f565b82525050565b6000602082019050620002df6000830184620002b7565b92915050565b6000819050919050565b6000620003106200030a6200030484620002e5565b62000285565b62000278565b9050919050565b6200032281620002ef565b82525050565b60006020820190506200033f600083018462000317565b92915050565b7f4e487b7100000000000000000000000000000000000000000000000000000000600052602260045260246000fd5b600060028204905060018216806200038d57607f821691505b60208210811415620003a457620003a362000345565b5b50919050565b61256280620003ba6000396000f3fe6080604052600436106100dd5760003560e01c80637fe4955c1161007f578063cce7ec1311610059578063cce7ec13146102ca578063ddca3f43146102e6578063df791e5014610311578063f7f3bd9a1461033a576100dd565b80637fe4955c14610235578063999b4dde14610274578063b4a800ce1461029f576100dd565b8063618033db116100bb578063618033db146101755780636c7f3f17146101a1578063722713f7146101cc5780637e352755146101f8576100dd565b806306fdde03146100e25780630d7c18591461010d57806317635cb21461014a575b600080fd5b3480156100ee57600080fd5b506100f761037b565b604051610104919061191f565b60405180910390f35b34801561011957600080fd5b50610134600480360381019061012f919061197c565b610409565b6040516101419190611a3b565b60405180910390f35b34801561015657600080fd5b5061015f6104ec565b60405161016c9190611ab5565b60405180910390f35b34801561018157600080fd5b5061018a610512565b604051610198929190611adf565b60405180910390f35b3480156101ad57600080fd5b506101b6610523565b6040516101c39190611b08565b60405180910390f35b3480156101d857600080fd5b506101e1610529565b6040516101ef929190611adf565b60405180910390f35b34801561020457600080fd5b5061021f600480360381019061021a919061197c565b6106ac565b60405161022c9190611b8b565b60405180910390f35b34801561024157600080fd5b5061025c6004803603810190610257919061197c565b6107ef565b60405161026b93929190611bb5565b60405180910390f35b34801561028057600080fd5b50610289610859565b6040516102969190611c0d565b60405180910390f35b3480156102ab57600080fd5b506102b461087f565b6040516102c19190611b08565b60405180910390f35b6102e460048036038101906102df9190611c54565b610885565b005b3480156102f257600080fd5b506102fb610e66565b6040516103089190611b08565b60405180910390f35b34801561031d57600080fd5b5061033860048036038101906103339190611c94565b610e6c565b005b34801561034657600080fd5b50610361600480360381019061035c919061197c565b611596565b604051610372959493929190611ce7565b60405180910390f35b6001805461038890611d69565b80601f01602080910402602001604051908101604052809291908181526020018280546103b490611d69565b80156104015780601f106103d657610100808354040283529160200191610401565b820191906000526020600020905b8154815290600101906020018083116103e457829003601f168201915b505050505081565b6104116117c8565b600860008381526020019081526020016000206040518060600160405290816000820160009054906101000a900473ffffffffffffffffffffffffffffffffffffffff1673ffffffffffffffffffffffffffffffffffffffff1673ffffffffffffffffffffffffffffffffffffffff1681526020016001820160009054906101000a900473ffffffffffffffffffffffffffffffffffffffff1673ffffffffffffffffffffffffffffffffffffffff1673ffffffffffffffffffffffffffffffffffffffff1681526020016002820154815250509050919050565b600360009054906101000a900473ffffffffffffffffffffffffffffffffffffffff1681565b600080600654600554915091509091565b60065481565b600080600360009054906101000a900473ffffffffffffffffffffffffffffffffffffffff1673ffffffffffffffffffffffffffffffffffffffff166370a0823160008054906101000a900473ffffffffffffffffffffffffffffffffffffffff166040518263ffffffff1660e01b81526004016105a79190611d9b565b602060405180830381865afa1580156105c4573d6000803e3d6000fd5b505050506040513d601f19601f820116820180604052508101906105e89190611dcb565b600460009054906101000a900473ffffffffffffffffffffffffffffffffffffffff1673ffffffffffffffffffffffffffffffffffffffff166370a0823160008054906101000a900473ffffffffffffffffffffffffffffffffffffffff166040518263ffffffff1660e01b81526004016106639190611d9b565b602060405180830381865afa158015610680573d6000803e3d6000fd5b505050506040513d601f19601f820116820180604052508101906106a49190611dcb565b915091509091565b6106b4611815565b600760008381526020019081526020016000206040518060a00160405290816000820160009054906101000a900473ffffffffffffffffffffffffffffffffffffffff1673ffffffffffffffffffffffffffffffffffffffff1673ffffffffffffffffffffffffffffffffffffffff1681526020016001820160009054906101000a900473ffffffffffffffffffffffffffffffffffffffff1673ffffffffffffffffffffffffffffffffffffffff1673ffffffffffffffffffffffffffffffffffffffff1681526020016002820160009054906101000a900473ffffffffffffffffffffffffffffffffffffffff1673ffffffffffffffffffffffffffffffffffffffff1673ffffffffffffffffffffffffffffffffffffffff168152602001600382015481526020016004820154815250509050919050565b60086020528060005260406000206000915090508060000160009054906101000a900473ffffffffffffffffffffffffffffffffffffffff16908060010160009054906101000a900473ffffffffffffffffffffffffffffffffffffffff16908060020154905083565b600460009054906101000a900473ffffffffffffffffffffffffffffffffffffffff1681565b60055481565b600073ffffffffffffffffffffffffffffffffffffffff168273ffffffffffffffffffffffffffffffffffffffff1614156108f5576040517f08c379a00000000000000000000000000000000000000000000000000000000081526004016108ec90611e44565b60405180910390fd5b6000829050600082101561093e576040517f08c379a000000000000000000000000000000000000000000000000000000000815260040161093590611eb0565b60405180910390fd5b8073ffffffffffffffffffffffffffffffffffffffff166343f48fbd6040518163ffffffff1660e01b8152600401602060405180830381865afa158015610989573d6000803e3d6000fd5b505050506040513d601f19601f820116820180604052508101906109ad9190611f09565b60ff168173ffffffffffffffffffffffffffffffffffffffff1663313ce5676040518163ffffffff1660e01b8152600401602060405180830381865afa1580156109fb573d6000803e3d6000fd5b505050506040513d601f19601f82011682018060405250810190610a1f9190611f09565b600a610a2b9190612098565b83610a3691906120e3565b610a40919061216c565b9150818173ffffffffffffffffffffffffffffffffffffffff166370a0823160008054906101000a900473ffffffffffffffffffffffffffffffffffffffff166040518263ffffffff1660e01b8152600401610a9c9190611d9b565b602060405180830381865afa158015610ab9573d6000803e3d6000fd5b505050506040513d601f19601f82011682018060405250810190610add9190611dcb565b1015610b1e576040517f08c379a0000000000000000000000000000000000000000000000000000000008152600401610b15906121e9565b60405180910390fd5b600033905082341015610b66576040517f08c379a0000000000000000000000000000000000000000000000000000000008152600401610b5d90612255565b60405180910390fd5b8173ffffffffffffffffffffffffffffffffffffffff1663a9059cbb82856040518363ffffffff1660e01b8152600401610ba1929190612275565b6020604051808303816000875af1158015610bc0573d6000803e3d6000fd5b505050506040513d601f19601f82011682018060405250810190610be491906122d6565b5060066000815480929190610bf890612303565b9190505550600060405180606001604052808373ffffffffffffffffffffffffffffffffffffffff1681526020018473ffffffffffffffffffffffffffffffffffffffff1681526020018581525090508060086000600654815260200190815260200160002060008201518160000160006101000a81548173ffffffffffffffffffffffffffffffffffffffff021916908373ffffffffffffffffffffffffffffffffffffffff16021790555060208201518160010160006101000a81548173ffffffffffffffffffffffffffffffffffffffff021916908373ffffffffffffffffffffffffffffffffffffffff160217905550604082015181600201559050508273ffffffffffffffffffffffffffffffffffffffff168273ffffffffffffffffffffffffffffffffffffffff167fa5ff468a42a1c7f5a78dd6683a9722f1ef3c388d590959bbd7a6d2c837fcab078573ffffffffffffffffffffffffffffffffffffffff1663313ce5676040518163ffffffff1660e01b8152600401602060405180830381865afa158015610d93573d6000803e3d6000fd5b505050506040513d601f19601f82011682018060405250810190610db79190611f09565b600a610dc39190612098565b8673ffffffffffffffffffffffffffffffffffffffff166343f48fbd6040518163ffffffff1660e01b8152600401602060405180830381865afa158015610e0e573d6000803e3d6000fd5b505050506040513d601f19601f82011682018060405250810190610e329190611f09565b60ff1688610e4091906120e3565b610e4a919061216c565b604051610e579190611b08565b60405180910390a35050505050565b60025481565b60008111610eaf576040517f08c379a0000000000000000000000000000000000000000000000000000000008152600401610ea690611eb0565b60405180910390fd5b600083905060008390508173ffffffffffffffffffffffffffffffffffffffff166343f48fbd6040518163ffffffff1660e01b8152600401602060405180830381865afa158015610f04573d6000803e3d6000fd5b505050506040513d601f19601f82011682018060405250810190610f289190611f09565b60ff168273ffffffffffffffffffffffffffffffffffffffff1663313ce5676040518163ffffffff1660e01b8152600401602060405180830381865afa158015610f76573d6000803e3d6000fd5b505050506040513d601f19601f82011682018060405250810190610f9a9190611f09565b600a610fa69190612098565b84610fb191906120e3565b610fbb919061216c565b92506000610fca83838661162c565b905060003390507f9f0f8644eff9e0388817c612fa0944f7e7c95fc1252ddab2e199fbd35b761378826040516110009190611b08565b60405180910390a1848473ffffffffffffffffffffffffffffffffffffffff166370a08231836040518263ffffffff1660e01b81526004016110429190611d9b565b602060405180830381865afa15801561105f573d6000803e3d6000fd5b505050506040513d601f19601f820116820180604052508101906110839190611dcb565b10156110c4576040517f08c379a00000000000000000000000000000000000000000000000000000000081526004016110bb90612398565b60405180910390fd5b60008211611107576040517f08c379a00000000000000000000000000000000000000000000000000000000081526004016110fe90612404565b60405180910390fd5b818373ffffffffffffffffffffffffffffffffffffffff166370a0823160008054906101000a900473ffffffffffffffffffffffffffffffffffffffff166040518263ffffffff1660e01b81526004016111619190611d9b565b602060405180830381865afa15801561117e573d6000803e3d6000fd5b505050506040513d601f19601f820116820180604052508101906111a29190611dcb565b10156111e3576040517f08c379a00000000000000000000000000000000000000000000000000000000081526004016111da90612470565b60405180910390fd5b8373ffffffffffffffffffffffffffffffffffffffff1663095ea7b360008054906101000a900473ffffffffffffffffffffffffffffffffffffffff16876040518363ffffffff1660e01b815260040161123e929190612275565b6020604051808303816000875af115801561125d573d6000803e3d6000fd5b505050506040513d601f19601f8201168201806040525081019061128191906122d6565b508373ffffffffffffffffffffffffffffffffffffffff166323b872dd8260008054906101000a900473ffffffffffffffffffffffffffffffffffffffff16886040518463ffffffff1660e01b81526004016112df93929190611bb5565b6020604051808303816000875af11580156112fe573d6000803e3d6000fd5b505050506040513d601f19601f8201168201806040525081019061132291906122d6565b508273ffffffffffffffffffffffffffffffffffffffff1663a9059cbb82846040518363ffffffff1660e01b815260040161135e929190612275565b6020604051808303816000875af115801561137d573d6000803e3d6000fd5b505050506040513d601f19601f820116820180604052508101906113a191906122d6565b50600560008154809291906113b590612303565b91905055506040518060a001604052808273ffffffffffffffffffffffffffffffffffffffff1681526020018573ffffffffffffffffffffffffffffffffffffffff1681526020018473ffffffffffffffffffffffffffffffffffffffff1681526020018681526020018381525060076000600554815260200190815260200160002060008201518160000160006101000a81548173ffffffffffffffffffffffffffffffffffffffff021916908373ffffffffffffffffffffffffffffffffffffffff16021790555060208201518160010160006101000a81548173ffffffffffffffffffffffffffffffffffffffff021916908373ffffffffffffffffffffffffffffffffffffffff16021790555060408201518160020160006101000a81548173ffffffffffffffffffffffffffffffffffffffff021916908373ffffffffffffffffffffffffffffffffffffffff16021790555060608201518160030155608082015181600401559050508273ffffffffffffffffffffffffffffffffffffffff168473ffffffffffffffffffffffffffffffffffffffff167f648f82f5a3204cf46c35290b37c576a8aefa5cff8924705f0bd6b5165da2388c83888660405161158593929190612490565b60405180910390a350505050505050565b60076020528060005260406000206000915090508060000160009054906101000a900473ffffffffffffffffffffffffffffffffffffffff16908060010160009054906101000a900473ffffffffffffffffffffffffffffffffffffffff16908060020160009054906101000a900473ffffffffffffffffffffffffffffffffffffffff16908060030154908060040154905085565b6000808473ffffffffffffffffffffffffffffffffffffffff166343f48fbd6040518163ffffffff1660e01b8152600401602060405180830381865afa15801561167a573d6000803e3d6000fd5b505050506040513d601f19601f8201168201806040525081019061169e9190611f09565b905060008473ffffffffffffffffffffffffffffffffffffffff166343f48fbd6040518163ffffffff1660e01b8152600401602060405180830381865afa1580156116ed573d6000803e3d6000fd5b505050506040513d601f19601f820116820180604052508101906117119190611f09565b905060008060008360ff168560ff161161177157848461173191906124c7565b9250868360ff1661174291906120e3565b91506103e86002548361175591906120e3565b61175f919061216c565b8261176a91906124f8565b90506117b9565b838561177d91906124c7565b92508260ff168761178e919061216c565b91506103e8600254836117a191906120e3565b6117ab919061216c565b826117b691906124f8565b90505b80955050505050509392505050565b6040518060600160405280600073ffffffffffffffffffffffffffffffffffffffff168152602001600073ffffffffffffffffffffffffffffffffffffffff168152602001600081525090565b6040518060a00160405280600073ffffffffffffffffffffffffffffffffffffffff168152602001600073ffffffffffffffffffffffffffffffffffffffff168152602001600073ffffffffffffffffffffffffffffffffffffffff16815260200160008152602001600081525090565b600081519050919050565b600082825260208201905092915050565b60005b838110156118c05780820151818401526020810190506118a5565b838111156118cf576000848401525b50505050565b6000601f19601f8301169050919050565b60006118f182611886565b6118fb8185611891565b935061190b8185602086016118a2565b611914816118d5565b840191505092915050565b6000602082019050818103600083015261193981846118e6565b905092915050565b600080fd5b6000819050919050565b61195981611946565b811461196457600080fd5b50565b60008135905061197681611950565b92915050565b60006020828403121561199257611991611941565b5b60006119a084828501611967565b91505092915050565b600073ffffffffffffffffffffffffffffffffffffffff82169050919050565b60006119d4826119a9565b9050919050565b6119e4816119c9565b82525050565b6119f381611946565b82525050565b606082016000820151611a0f60008501826119db565b506020820151611a2260208501826119db565b506040820151611a3560408501826119ea565b50505050565b6000606082019050611a5060008301846119f9565b92915050565b6000819050919050565b6000611a7b611a76611a71846119a9565b611a56565b6119a9565b9050919050565b6000611a8d82611a60565b9050919050565b6000611a9f82611a82565b9050919050565b611aaf81611a94565b82525050565b6000602082019050611aca6000830184611aa6565b92915050565b611ad981611946565b82525050565b6000604082019050611af46000830185611ad0565b611b016020830184611ad0565b9392505050565b6000602082019050611b1d6000830184611ad0565b92915050565b60a082016000820151611b3960008501826119db565b506020820151611b4c60208501826119db565b506040820151611b5f60408501826119db565b506060820151611b7260608501826119ea565b506080820151611b8560808501826119ea565b50505050565b600060a082019050611ba06000830184611b23565b92915050565b611baf816119c9565b82525050565b6000606082019050611bca6000830186611ba6565b611bd76020830185611ba6565b611be46040830184611ad0565b949350505050565b6000611bf782611a82565b9050919050565b611c0781611bec565b82525050565b6000602082019050611c226000830184611bfe565b92915050565b611c31816119c9565b8114611c3c57600080fd5b50565b600081359050611c4e81611c28565b92915050565b60008060408385031215611c6b57611c6a611941565b5b6000611c7985828601611c3f565b9250506020611c8a85828601611967565b9150509250929050565b600080600060608486031215611cad57611cac611941565b5b6000611cbb86828701611c3f565b9350506020611ccc86828701611c3f565b9250506040611cdd86828701611967565b9150509250925092565b600060a082019050611cfc6000830188611ba6565b611d096020830187611ba6565b611d166040830186611ba6565b611d236060830185611ad0565b611d306080830184611ad0565b9695505050505050565b7f4e487b7100000000000000000000000000000000000000000000000000000000600052602260045260246000fd5b60006002820490506001821680611d8157607f821691505b60208210811415611d9557611d94611d3a565b5b50919050565b6000602082019050611db06000830184611ba6565b92915050565b600081519050611dc581611950565b92915050565b600060208284031215611de157611de0611941565b5b6000611def84828501611db6565b91505092915050565b7f504149523a20746f6b656e206973206e6f742076616c69640000000000000000600082015250565b6000611e2e601883611891565b9150611e3982611df8565b602082019050919050565b60006020820190508181036000830152611e5d81611e21565b9050919050565b7f504149523a20616d6f756e74206973207a65726f000000000000000000000000600082015250565b6000611e9a601483611891565b9150611ea582611e64565b602082019050919050565b60006020820190508181036000830152611ec981611e8d565b9050919050565b600060ff82169050919050565b611ee681611ed0565b8114611ef157600080fd5b50565b600081519050611f0381611edd565b92915050565b600060208284031215611f1f57611f1e611941565b5b6000611f2d84828501611ef4565b91505092915050565b7f4e487b7100000000000000000000000000000000000000000000000000000000600052601160045260246000fd5b60008160011c9050919050565b6000808291508390505b6001851115611fbc57808604811115611f9857611f97611f36565b5b6001851615611fa75780820291505b8081029050611fb585611f65565b9450611f7c565b94509492505050565b600082611fd55760019050612091565b81611fe35760009050612091565b8160018114611ff9576002811461200357612032565b6001915050612091565b60ff84111561201557612014611f36565b5b8360020a91508482111561202c5761202b611f36565b5b50612091565b5060208310610133831016604e8410600b84101617156120675782820a90508381111561206257612061611f36565b5b612091565b6120748484846001611f72565b9250905081840481111561208b5761208a611f36565b5b81810290505b9392505050565b60006120a382611946565b91506120ae83611ed0565b92506120db7fffffffffffffffffffffffffffffffffffffffffffffffffffffffffffffffff8484611fc5565b905092915050565b60006120ee82611946565b91506120f983611946565b9250817fffffffffffffffffffffffffffffffffffffffffffffffffffffffffffffffff048311821515161561213257612131611f36565b5b828202905092915050565b7f4e487b7100000000000000000000000000000000000000000000000000000000600052601260045260246000fd5b600061217782611946565b915061218283611946565b9250826121925761219161213d565b5b828204905092915050565b7f504149523a2062616c616e6365206973206c6f77000000000000000000000000600082015250565b60006121d3601483611891565b91506121de8261219d565b602082019050919050565b60006020820190508181036000830152612202816121c6565b9050919050565b7f504149523a2076616c7565206973206c6f770000000000000000000000000000600082015250565b600061223f601283611891565b915061224a82612209565b602082019050919050565b6000602082019050818103600083015261226e81612232565b9050919050565b600060408201905061228a6000830185611ba6565b6122976020830184611ad0565b9392505050565b60008115159050919050565b6122b38161229e565b81146122be57600080fd5b50565b6000815190506122d0816122aa565b92915050565b6000602082840312156122ec576122eb611941565b5b60006122fa848285016122c1565b91505092915050565b600061230e82611946565b91507fffffffffffffffffffffffffffffffffffffffffffffffffffffffffffffffff82141561234157612340611f36565b5b600182019050919050565b7f504149523a20746f6b656e312062616c616e6365206973206c6f770000000000600082015250565b6000612382601b83611891565b915061238d8261234c565b602082019050919050565b600060208201905081810360008301526123b181612375565b9050919050565b7f504149523a2065786368616e6765416d6f756e74206973207a65726f00000000600082015250565b60006123ee601c83611891565b91506123f9826123b8565b602082019050919050565b6000602082019050818103600083015261241d816123e1565b9050919050565b7f504149523a20746f6b656e322062616c616e6365206973206c6f770000000000600082015250565b600061245a601b83611891565b915061246582612424565b602082019050919050565b600060208201905081810360008301526124898161244d565b9050919050565b60006060820190506124a56000830186611ba6565b6124b26020830185611ad0565b6124bf6040830184611ad0565b949350505050565b60006124d282611ed0565b91506124dd83611ed0565b9250826124ed576124ec61213d565b5b828204905092915050565b600061250382611946565b915061250e83611946565b92508282101561252157612520611f36565b5b82820390509291505056fea2646970667358221220f3bd39d476a6add5cf89fe39b370b536ac7944ddd50ea9538bb2f65c6beed5eb64736f6c634300080c003360806040523480156200001157600080fd5b5060405162001ade38038062001ade8339818101604052810190620000379190620003bc565b6040518060400160405280601581526020017f43616e6963756c6120546f6b656e30312076312e3000000000000000000000008152506040518060400160405280600581526020017f43414e30310000000000000000000000000000000000000000000000000000008152508160039080519060200190620000bb929190620002c9565b508060049080519060200190620000d4929190620002c9565b50505080600560006101000a81548160ff021916908360ff1602179055506000620001046200013d60201b60201c565b600a6200011291906200057b565b612710620001219190620005cc565b90506200013533826200014660201b60201c565b5050620007a0565b60006012905090565b600073ffffffffffffffffffffffffffffffffffffffff168273ffffffffffffffffffffffffffffffffffffffff161415620001b9576040517f08c379a0000000000000000000000000000000000000000000000000000000008152600401620001b0906200068e565b60405180910390fd5b620001cd60008383620002bf60201b60201c565b8060026000828254620001e19190620006b0565b92505081905550806000808473ffffffffffffffffffffffffffffffffffffffff1673ffffffffffffffffffffffffffffffffffffffff1681526020019081526020016000206000828254620002389190620006b0565b925050819055508173ffffffffffffffffffffffffffffffffffffffff16600073ffffffffffffffffffffffffffffffffffffffff167fddf252ad1be2c89b69c2b068fc378daa952ba7f163c4a11628f55a4df523b3ef836040516200029f91906200071e565b60405180910390a3620002bb60008383620002c460201b60201c565b5050565b505050565b505050565b828054620002d7906200076a565b90600052602060002090601f016020900481019282620002fb576000855562000347565b82601f106200031657805160ff191683800117855562000347565b8280016001018555821562000347579182015b828111156200034657825182559160200191906001019062000329565b5b5090506200035691906200035a565b5090565b5b80821115620003755760008160009055506001016200035b565b5090565b600080fd5b600060ff82169050919050565b62000396816200037e565b8114620003a257600080fd5b50565b600081519050620003b6816200038b565b92915050565b600060208284031215620003d557620003d462000379565b5b6000620003e584828501620003a5565b91505092915050565b7f4e487b7100000000000000000000000000000000000000000000000000000000600052601160045260246000fd5b60008160011c9050919050565b6000808291508390505b60018511156200047c57808604811115620004545762000453620003ee565b5b6001851615620004645780820291505b808102905062000474856200041d565b945062000434565b94509492505050565b6000826200049757600190506200056a565b81620004a757600090506200056a565b8160018114620004c05760028114620004cb5762000501565b60019150506200056a565b60ff841115620004e057620004df620003ee565b5b8360020a915084821115620004fa57620004f9620003ee565b5b506200056a565b5060208310610133831016604e8410600b84101617156200053b5782820a905083811115620005355762000534620003ee565b5b6200056a565b6200054a84848460016200042a565b92509050818404811115620005645762000563620003ee565b5b81810290505b9392505050565b6000819050919050565b6000620005888262000571565b915062000595836200037e565b9250620005c47fffffffffffffffffffffffffffffffffffffffffffffffffffffffffffffffff848462000485565b905092915050565b6000620005d98262000571565b9150620005e68362000571565b9250817fffffffffffffffffffffffffffffffffffffffffffffffffffffffffffffffff0483118215151615620006225762000621620003ee565b5b828202905092915050565b600082825260208201905092915050565b7f45524332303a206d696e7420746f20746865207a65726f206164647265737300600082015250565b600062000676601f836200062d565b915062000683826200063e565b602082019050919050565b60006020820190508181036000830152620006a98162000667565b9050919050565b6000620006bd8262000571565b9150620006ca8362000571565b9250827fffffffffffffffffffffffffffffffffffffffffffffffffffffffffffffffff03821115620007025762000701620003ee565b5b828201905092915050565b620007188162000571565b82525050565b60006020820190506200073560008301846200070d565b92915050565b7f4e487b7100000000000000000000000000000000000000000000000000000000600052602260045260246000fd5b600060028204905060018216806200078357607f821691505b602082108114156200079a57620007996200073b565b5b50919050565b61132e80620007b06000396000f3fe608060405234801561001057600080fd5b50600436106100cf5760003560e01c8063395093511161008c57806395d89b411161006657806395d89b411461022a578063a457c2d714610248578063a9059cbb14610278578063dd62ed3e146102a8576100cf565b806339509351146101ac57806343f48fbd146101dc57806370a08231146101fa576100cf565b806306fdde03146100d4578063095ea7b3146100f257806318160ddd1461012257806323b872dd146101405780632c4e722e14610170578063313ce5671461018e575b600080fd5b6100dc6102d8565b6040516100e99190610c54565b60405180910390f35b61010c60048036038101906101079190610d0f565b61036a565b6040516101199190610d6a565b60405180910390f35b61012a61038d565b6040516101379190610d94565b60405180910390f35b61015a60048036038101906101559190610daf565b610397565b6040516101679190610d6a565b60405180910390f35b6101786103c6565b6040516101859190610e1e565b60405180910390f35b6101966103d9565b6040516101a39190610e1e565b60405180910390f35b6101c660048036038101906101c19190610d0f565b6103e2565b6040516101d39190610d6a565b60405180910390f35b6101e461048c565b6040516101f19190610d94565b60405180910390f35b610214600480360381019061020f9190610e39565b6104a6565b6040516102219190610d94565b60405180910390f35b6102326104ee565b60405161023f9190610c54565b60405180910390f35b610262600480360381019061025d9190610d0f565b610580565b60405161026f9190610d6a565b60405180910390f35b610292600480360381019061028d9190610d0f565b61066a565b60405161029f9190610d6a565b60405180910390f35b6102c260048036038101906102bd9190610e66565b61068d565b6040516102cf9190610d94565b60405180910390f35b6060600380546102e790610ed5565b80601f016020809104026020016040519081016040528092919081815260200182805461031390610ed5565b80156103605780601f1061033557610100808354040283529160200191610360565b820191906000526020600020905b81548152906001019060200180831161034357829003601f168201915b5050505050905090565b600080610375610714565b905061038281858561071c565b600191505092915050565b6000600254905090565b6000806103a2610714565b90506103af8582856108e7565b6103ba858585610930565b60019150509392505050565b600560009054906101000a900460ff1681565b60006012905090565b6000806103ed610714565b9050610481818585600160008673ffffffffffffffffffffffffffffffffffffffff1673ffffffffffffffffffffffffffffffffffffffff16815260200190815260200160002060008973ffffffffffffffffffffffffffffffffffffffff1673ffffffffffffffffffffffffffffffffffffffff1681526020019081526020016000205461047c9190610f36565b61071c565b600191505092915050565b6000600560009054906101000a900460ff1660ff16905090565b60008060008373ffffffffffffffffffffffffffffffffffffffff1673ffffffffffffffffffffffffffffffffffffffff168152602001908152602001600020549050919050565b6060600480546104fd90610ed5565b80601f016020809104026020016040519081016040528092919081815260200182805461052990610ed5565b80156105765780601f1061054b57610100808354040283529160200191610576565b820191906000526020600020905b81548152906001019060200180831161055957829003601f168201915b5050505050905090565b60008061058b610714565b90506000600160008373ffffffffffffffffffffffffffffffffffffffff1673ffffffffffffffffffffffffffffffffffffffff16815260200190815260200160002060008673ffffffffffffffffffffffffffffffffffffffff1673ffffffffffffffffffffffffffffffffffffffff16815260200190815260200160002054905083811015610651576040517f08c379a000000000000000000000000000000000000000000000000000000000815260040161064890610ffe565b60405180910390fd5b61065e828686840361071c565b60019250505092915050565b600080610675610714565b9050610682818585610930565b600191505092915050565b6000600160008473ffffffffffffffffffffffffffffffffffffffff1673ffffffffffffffffffffffffffffffffffffffff16815260200190815260200160002060008373ffffffffffffffffffffffffffffffffffffffff1673ffffffffffffffffffffffffffffffffffffffff16815260200190815260200160002054905092915050565b600033905090565b600073ffffffffffffffffffffffffffffffffffffffff168373ffffffffffffffffffffffffffffffffffffffff16141561078c576040517f08c379a000000000000000000000000000000000000000000000000000000000815260040161078390611090565b60405180910390fd5b600073ffffffffffffffffffffffffffffffffffffffff168273ffffffffffffffffffffffffffffffffffffffff1614156107fc576040517f08c379a00000000000000000000000000000000000000000000000000000000081526004016107f390611122565b60405180910390fd5b80600160008573ffffffffffffffffffffffffffffffffffffffff1673ffffffffffffffffffffffffffffffffffffffff16815260200190815260200160002060008473ffffffffffffffffffffffffffffffffffffffff1673ffffffffffffffffffffffffffffffffffffffff168152602001908152602001600020819055508173ffffffffffffffffffffffffffffffffffffffff168373ffffffffffffffffffffffffffffffffffffffff167f8c5be1e5ebec7d5bd14f71427d1e84f3dd0314c0f7b2291e5b200ac8c7c3b925836040516108da9190610d94565b60405180910390a3505050565b60006108f3848461068d565b90507fffffffffffffffffffffffffffffffffffffffffffffffffffffffffffffffff811461092a57610929848484840361071c565b5b50505050565b600073ffffffffffffffffffffffffffffffffffffffff168373ffffffffffffffffffffffffffffffffffffffff1614156109a0576040517f08c379a0000000000000000000000000000000000000000000000000000000008152600401610997906111b4565b60405180910390fd5b600073ffffffffffffffffffffffffffffffffffffffff168273ffffffffffffffffffffffffffffffffffffffff161415610a10576040517f08c379a0000000000000000000000000000000000000000000000000000000008152600401610a0790611246565b60405180910390fd5b610a1b838383610bb1565b60008060008573ffffffffffffffffffffffffffffffffffffffff1673ffffffffffffffffffffffffffffffffffffffff16815260200190815260200160002054905081811015610aa1576040517f08c379a0000000000000000000000000000000000000000000000000000000008152600401610a98906112d8565b60405180910390fd5b8181036000808673ffffffffffffffffffffffffffffffffffffffff1673ffffffffffffffffffffffffffffffffffffffff16815260200190815260200160002081905550816000808573ffffffffffffffffffffffffffffffffffffffff1673ffffffffffffffffffffffffffffffffffffffff1681526020019081526020016000206000828254610b349190610f36565b925050819055508273ffffffffffffffffffffffffffffffffffffffff168473ffffffffffffffffffffffffffffffffffffffff167fddf252ad1be2c89b69c2b068fc378daa952ba7f163c4a11628f55a4df523b3ef84604051610b989190610d94565b60405180910390a3610bab848484610bb6565b50505050565b505050565b505050565b600081519050919050565b600082825260208201905092915050565b60005b83811015610bf5578082015181840152602081019050610bda565b83811115610c04576000848401525b50505050565b6000601f19601f8301169050919050565b6000610c2682610bbb565b610c308185610bc6565b9350610c40818560208601610bd7565b610c4981610c0a565b840191505092915050565b60006020820190508181036000830152610c6e8184610c1b565b905092915050565b600080fd5b600073ffffffffffffffffffffffffffffffffffffffff82169050919050565b6000610ca682610c7b565b9050919050565b610cb681610c9b565b8114610cc157600080fd5b50565b600081359050610cd381610cad565b92915050565b6000819050919050565b610cec81610cd9565b8114610cf757600080fd5b50565b600081359050610d0981610ce3565b92915050565b60008060408385031215610d2657610d25610c76565b5b6000610d3485828601610cc4565b9250506020610d4585828601610cfa565b9150509250929050565b60008115159050919050565b610d6481610d4f565b82525050565b6000602082019050610d7f6000830184610d5b565b92915050565b610d8e81610cd9565b82525050565b6000602082019050610da96000830184610d85565b92915050565b600080600060608486031215610dc857610dc7610c76565b5b6000610dd686828701610cc4565b9350506020610de786828701610cc4565b9250506040610df886828701610cfa565b9150509250925092565b600060ff82169050919050565b610e1881610e02565b82525050565b6000602082019050610e336000830184610e0f565b92915050565b600060208284031215610e4f57610e4e610c76565b5b6000610e5d84828501610cc4565b91505092915050565b60008060408385031215610e7d57610e7c610c76565b5b6000610e8b85828601610cc4565b9250506020610e9c85828601610cc4565b9150509250929050565b7f4e487b7100000000000000000000000000000000000000000000000000000000600052602260045260246000fd5b60006002820490506001821680610eed57607f821691505b60208210811415610f0157610f00610ea6565b5b50919050565b7f4e487b7100000000000000000000000000000000000000000000000000000000600052601160045260246000fd5b6000610f4182610cd9565b9150610f4c83610cd9565b9250827fffffffffffffffffffffffffffffffffffffffffffffffffffffffffffffffff03821115610f8157610f80610f07565b5b828201905092915050565b7f45524332303a2064656372656173656420616c6c6f77616e63652062656c6f7760008201527f207a65726f000000000000000000000000000000000000000000000000000000602082015250565b6000610fe8602583610bc6565b9150610ff382610f8c565b604082019050919050565b6000602082019050818103600083015261101781610fdb565b9050919050565b7f45524332303a20617070726f76652066726f6d20746865207a65726f2061646460008201527f7265737300000000000000000000000000000000000000000000000000000000602082015250565b600061107a602483610bc6565b91506110858261101e565b604082019050919050565b600060208201905081810360008301526110a98161106d565b9050919050565b7f45524332303a20617070726f766520746f20746865207a65726f20616464726560008201527f7373000000000000000000000000000000000000000000000000000000000000602082015250565b600061110c602283610bc6565b9150611117826110b0565b604082019050919050565b6000602082019050818103600083015261113b816110ff565b9050919050565b7f45524332303a207472616e736665722066726f6d20746865207a65726f20616460008201527f6472657373000000000000000000000000000000000000000000000000000000602082015250565b600061119e602583610bc6565b91506111a982611142565b604082019050919050565b600060208201905081810360008301526111cd81611191565b9050919050565b7f45524332303a207472616e7366657220746f20746865207a65726f206164647260008201527f6573730000000000000000000000000000000000000000000000000000000000602082015250565b6000611230602383610bc6565b915061123b826111d4565b604082019050919050565b6000602082019050818103600083015261125f81611223565b9050919050565b7f45524332303a207472616e7366657220616d6f756e742065786365656473206260008201527f616c616e63650000000000000000000000000000000000000000000000000000602082015250565b60006112c2602683610bc6565b91506112cd82611266565b604082019050919050565b600060208201905081810360008301526112f1816112b5565b905091905056fea2646970667358221220266a35f3250d5df7bef5ca2ffd58353072997cac20aae86e9411090f4d4bffda64736f6c634300080c003360806040523480156200001157600080fd5b5060405162001ade38038062001ade8339818101604052810190620000379190620003bc565b6040518060400160405280601581526020017f43616e6963756c6120546f6b656e30322076312e3000000000000000000000008152506040518060400160405280600581526020017f43414e30320000000000000000000000000000000000000000000000000000008152508160039080519060200190620000bb929190620002c9565b508060049080519060200190620000d4929190620002c9565b50505080600560006101000a81548160ff021916908360ff1602179055506000620001046200013d60201b60201c565b600a6200011291906200057b565b612710620001219190620005cc565b90506200013533826200014660201b60201c565b5050620007a0565b60006012905090565b600073ffffffffffffffffffffffffffffffffffffffff168273ffffffffffffffffffffffffffffffffffffffff161415620001b9576040517f08c379a0000000000000000000000000000000000000000000000000000000008152600401620001b0906200068e565b60405180910390fd5b620001cd60008383620002bf60201b60201c565b8060026000828254620001e19190620006b0565b92505081905550806000808473ffffffffffffffffffffffffffffffffffffffff1673ffffffffffffffffffffffffffffffffffffffff1681526020019081526020016000206000828254620002389190620006b0565b925050819055508173ffffffffffffffffffffffffffffffffffffffff16600073ffffffffffffffffffffffffffffffffffffffff167fddf252ad1be2c89b69c2b068fc378daa952ba7f163c4a11628f55a4df523b3ef836040516200029f91906200071e565b60405180910390a3620002bb60008383620002c460201b60201c565b5050565b505050565b505050565b828054620002d7906200076a565b90600052602060002090601f016020900481019282620002fb576000855562000347565b82601f106200031657805160ff191683800117855562000347565b8280016001018555821562000347579182015b828111156200034657825182559160200191906001019062000329565b5b5090506200035691906200035a565b5090565b5b80821115620003755760008160009055506001016200035b565b5090565b600080fd5b600060ff82169050919050565b62000396816200037e565b8114620003a257600080fd5b50565b600081519050620003b6816200038b565b92915050565b600060208284031215620003d557620003d462000379565b5b6000620003e584828501620003a5565b91505092915050565b7f4e487b7100000000000000000000000000000000000000000000000000000000600052601160045260246000fd5b60008160011c9050919050565b6000808291508390505b60018511156200047c57808604811115620004545762000453620003ee565b5b6001851615620004645780820291505b808102905062000474856200041d565b945062000434565b94509492505050565b6000826200049757600190506200056a565b81620004a757600090506200056a565b8160018114620004c05760028114620004cb5762000501565b60019150506200056a565b60ff841115620004e057620004df620003ee565b5b8360020a915084821115620004fa57620004f9620003ee565b5b506200056a565b5060208310610133831016604e8410600b84101617156200053b5782820a905083811115620005355762000534620003ee565b5b6200056a565b6200054a84848460016200042a565b92509050818404811115620005645762000563620003ee565b5b81810290505b9392505050565b6000819050919050565b6000620005888262000571565b915062000595836200037e565b9250620005c47fffffffffffffffffffffffffffffffffffffffffffffffffffffffffffffffff848462000485565b905092915050565b6000620005d98262000571565b9150620005e68362000571565b9250817fffffffffffffffffffffffffffffffffffffffffffffffffffffffffffffffff0483118215151615620006225762000621620003ee565b5b828202905092915050565b600082825260208201905092915050565b7f45524332303a206d696e7420746f20746865207a65726f206164647265737300600082015250565b600062000676601f836200062d565b915062000683826200063e565b602082019050919050565b60006020820190508181036000830152620006a98162000667565b9050919050565b6000620006bd8262000571565b9150620006ca8362000571565b9250827fffffffffffffffffffffffffffffffffffffffffffffffffffffffffffffffff03821115620007025762000701620003ee565b5b828201905092915050565b620007188162000571565b82525050565b60006020820190506200073560008301846200070d565b92915050565b7f4e487b7100000000000000000000000000000000000000000000000000000000600052602260045260246000fd5b600060028204905060018216806200078357607f821691505b602082108114156200079a57620007996200073b565b5b50919050565b61132e80620007b06000396000f3fe608060405234801561001057600080fd5b50600436106100cf5760003560e01c8063395093511161008c57806395d89b411161006657806395d89b411461022a578063a457c2d714610248578063a9059cbb14610278578063dd62ed3e146102a8576100cf565b806339509351146101ac57806343f48fbd146101dc57806370a08231146101fa576100cf565b806306fdde03146100d4578063095ea7b3146100f257806318160ddd1461012257806323b872dd146101405780632c4e722e14610170578063313ce5671461018e575b600080fd5b6100dc6102d8565b6040516100e99190610c54565b60405180910390f35b61010c60048036038101906101079190610d0f565b61036a565b6040516101199190610d6a565b60405180910390f35b61012a61038d565b6040516101379190610d94565b60405180910390f35b61015a60048036038101906101559190610daf565b610397565b6040516101679190610d6a565b60405180910390f35b6101786103c6565b6040516101859190610e1e565b60405180910390f35b6101966103d9565b6040516101a39190610e1e565b60405180910390f35b6101c660048036038101906101c19190610d0f565b6103e2565b6040516101d39190610d6a565b60405180910390f35b6101e461048c565b6040516101f19190610d94565b60405180910390f35b610214600480360381019061020f9190610e39565b6104a6565b6040516102219190610d94565b60405180910390f35b6102326104ee565b60405161023f9190610c54565b60405180910390f35b610262600480360381019061025d9190610d0f565b610580565b60405161026f9190610d6a565b60405180910390f35b610292600480360381019061028d9190610d0f565b61066a565b60405161029f9190610d6a565b60405180910390f35b6102c260048036038101906102bd9190610e66565b61068d565b6040516102cf9190610d94565b60405180910390f35b6060600380546102e790610ed5565b80601f016020809104026020016040519081016040528092919081815260200182805461031390610ed5565b80156103605780601f1061033557610100808354040283529160200191610360565b820191906000526020600020905b81548152906001019060200180831161034357829003601f168201915b5050505050905090565b600080610375610714565b905061038281858561071c565b600191505092915050565b6000600254905090565b6000806103a2610714565b90506103af8582856108e7565b6103ba858585610930565b60019150509392505050565b600560009054906101000a900460ff1681565b60006012905090565b6000806103ed610714565b9050610481818585600160008673ffffffffffffffffffffffffffffffffffffffff1673ffffffffffffffffffffffffffffffffffffffff16815260200190815260200160002060008973ffffffffffffffffffffffffffffffffffffffff1673ffffffffffffffffffffffffffffffffffffffff1681526020019081526020016000205461047c9190610f36565b61071c565b600191505092915050565b6000600560009054906101000a900460ff1660ff16905090565b60008060008373ffffffffffffffffffffffffffffffffffffffff1673ffffffffffffffffffffffffffffffffffffffff168152602001908152602001600020549050919050565b6060600480546104fd90610ed5565b80601f016020809104026020016040519081016040528092919081815260200182805461052990610ed5565b80156105765780601f1061054b57610100808354040283529160200191610576565b820191906000526020600020905b81548152906001019060200180831161055957829003601f168201915b5050505050905090565b60008061058b610714565b90506000600160008373ffffffffffffffffffffffffffffffffffffffff1673ffffffffffffffffffffffffffffffffffffffff16815260200190815260200160002060008673ffffffffffffffffffffffffffffffffffffffff1673ffffffffffffffffffffffffffffffffffffffff16815260200190815260200160002054905083811015610651576040517f08c379a000000000000000000000000000000000000000000000000000000000815260040161064890610ffe565b60405180910390fd5b61065e828686840361071c565b60019250505092915050565b600080610675610714565b9050610682818585610930565b600191505092915050565b6000600160008473ffffffffffffffffffffffffffffffffffffffff1673ffffffffffffffffffffffffffffffffffffffff16815260200190815260200160002060008373ffffffffffffffffffffffffffffffffffffffff1673ffffffffffffffffffffffffffffffffffffffff16815260200190815260200160002054905092915050565b600033905090565b600073ffffffffffffffffffffffffffffffffffffffff168373ffffffffffffffffffffffffffffffffffffffff16141561078c576040517f08c379a000000000000000000000000000000000000000000000000000000000815260040161078390611090565b60405180910390fd5b600073ffffffffffffffffffffffffffffffffffffffff168273ffffffffffffffffffffffffffffffffffffffff1614156107fc576040517f08c379a00000000000000000000000000000000000000000000000000000000081526004016107f390611122565b60405180910390fd5b80600160008573ffffffffffffffffffffffffffffffffffffffff1673ffffffffffffffffffffffffffffffffffffffff16815260200190815260200160002060008473ffffffffffffffffffffffffffffffffffffffff1673ffffffffffffffffffffffffffffffffffffffff168152602001908152602001600020819055508173ffffffffffffffffffffffffffffffffffffffff168373ffffffffffffffffffffffffffffffffffffffff167f8c5be1e5ebec7d5bd14f71427d1e84f3dd0314c0f7b2291e5b200ac8c7c3b925836040516108da9190610d94565b60405180910390a3505050565b60006108f3848461068d565b90507fffffffffffffffffffffffffffffffffffffffffffffffffffffffffffffffff811461092a57610929848484840361071c565b5b50505050565b600073ffffffffffffffffffffffffffffffffffffffff168373ffffffffffffffffffffffffffffffffffffffff1614156109a0576040517f08c379a0000000000000000000000000000000000000000000000000000000008152600401610997906111b4565b60405180910390fd5b600073ffffffffffffffffffffffffffffffffffffffff168273ffffffffffffffffffffffffffffffffffffffff161415610a10576040517f08c379a0000000000000000000000000000000000000000000000000000000008152600401610a0790611246565b60405180910390fd5b610a1b838383610bb1565b60008060008573ffffffffffffffffffffffffffffffffffffffff1673ffffffffffffffffffffffffffffffffffffffff16815260200190815260200160002054905081811015610aa1576040517f08c379a0000000000000000000000000000000000000000000000000000000008152600401610a98906112d8565b60405180910390fd5b8181036000808673ffffffffffffffffffffffffffffffffffffffff1673ffffffffffffffffffffffffffffffffffffffff16815260200190815260200160002081905550816000808573ffffffffffffffffffffffffffffffffffffffff1673ffffffffffffffffffffffffffffffffffffffff1681526020019081526020016000206000828254610b349190610f36565b925050819055508273ffffffffffffffffffffffffffffffffffffffff168473ffffffffffffffffffffffffffffffffffffffff167fddf252ad1be2c89b69c2b068fc378daa952ba7f163c4a11628f55a4df523b3ef84604051610b989190610d94565b60405180910390a3610bab848484610bb6565b50505050565b505050565b505050565b600081519050919050565b600082825260208201905092915050565b60005b83811015610bf5578082015181840152602081019050610bda565b83811115610c04576000848401525b50505050565b6000601f19601f8301169050919050565b6000610c2682610bbb565b610c308185610bc6565b9350610c40818560208601610bd7565b610c4981610c0a565b840191505092915050565b60006020820190508181036000830152610c6e8184610c1b565b905092915050565b600080fd5b600073ffffffffffffffffffffffffffffffffffffffff82169050919050565b6000610ca682610c7b565b9050919050565b610cb681610c9b565b8114610cc157600080fd5b50565b600081359050610cd381610cad565b92915050565b6000819050919050565b610cec81610cd9565b8114610cf757600080fd5b50565b600081359050610d0981610ce3565b92915050565b60008060408385031215610d2657610d25610c76565b5b6000610d3485828601610cc4565b9250506020610d4585828601610cfa565b9150509250929050565b60008115159050919050565b610d6481610d4f565b82525050565b6000602082019050610d7f6000830184610d5b565b92915050565b610d8e81610cd9565b82525050565b6000602082019050610da96000830184610d85565b92915050565b600080600060608486031215610dc857610dc7610c76565b5b6000610dd686828701610cc4565b9350506020610de786828701610cc4565b9250506040610df886828701610cfa565b9150509250925092565b600060ff82169050919050565b610e1881610e02565b82525050565b6000602082019050610e336000830184610e0f565b92915050565b600060208284031215610e4f57610e4e610c76565b5b6000610e5d84828501610cc4565b91505092915050565b60008060408385031215610e7d57610e7c610c76565b5b6000610e8b85828601610cc4565b9250506020610e9c85828601610cc4565b9150509250929050565b7f4e487b7100000000000000000000000000000000000000000000000000000000600052602260045260246000fd5b60006002820490506001821680610eed57607f821691505b60208210811415610f0157610f00610ea6565b5b50919050565b7f4e487b7100000000000000000000000000000000000000000000000000000000600052601160045260246000fd5b6000610f4182610cd9565b9150610f4c83610cd9565b9250827fffffffffffffffffffffffffffffffffffffffffffffffffffffffffffffffff03821115610f8157610f80610f07565b5b828201905092915050565b7f45524332303a2064656372656173656420616c6c6f77616e63652062656c6f7760008201527f207a65726f000000000000000000000000000000000000000000000000000000602082015250565b6000610fe8602583610bc6565b9150610ff382610f8c565b604082019050919050565b6000602082019050818103600083015261101781610fdb565b9050919050565b7f45524332303a20617070726f76652066726f6d20746865207a65726f2061646460008201527f7265737300000000000000000000000000000000000000000000000000000000602082015250565b600061107a602483610bc6565b91506110858261101e565b604082019050919050565b600060208201905081810360008301526110a98161106d565b9050919050565b7f45524332303a20617070726f766520746f20746865207a65726f20616464726560008201527f7373000000000000000000000000000000000000000000000000000000000000602082015250565b600061110c602283610bc6565b9150611117826110b0565b604082019050919050565b6000602082019050818103600083015261113b816110ff565b9050919050565b7f45524332303a207472616e736665722066726f6d20746865207a65726f20616460008201527f6472657373000000000000000000000000000000000000000000000000000000602082015250565b600061119e602583610bc6565b91506111a982611142565b604082019050919050565b600060208201905081810360008301526111cd81611191565b9050919050565b7f45524332303a207472616e7366657220746f20746865207a65726f206164647260008201527f6573730000000000000000000000000000000000000000000000000000000000602082015250565b6000611230602383610bc6565b915061123b826111d4565b604082019050919050565b6000602082019050818103600083015261125f81611223565b9050919050565b7f45524332303a207472616e7366657220616d6f756e742065786365656473206260008201527f616c616e63650000000000000000000000000000000000000000000000000000602082015250565b60006112c2602683610bc6565b91506112cd82611266565b604082019050919050565b600060208201905081810360008301526112f1816112b5565b905091905056fea2646970667358221220002c7096218fff2b9fc939d93d58834ccade0a039386b32500dab16f051f952364736f6c634300080c0033",
  "immutableReferences": {},
  "source": "// SPDX-License-Identifier: MIT\r\npragma solidity ^0.8.0;\r\n\r\nimport \"./CAN01.sol\";\r\nimport \"./CAN02.sol\";\r\nimport \"./ICAN.sol\";\r\n\r\ncontract Pair {\r\n  address private pair;\r\n  string public name;\r\n  uint256 public fee;\r\n  CAN01 public can01;\r\n  CAN02 public can02;\r\n  uint public totalSwaps;\r\n  uint public totalBuys;\r\n\r\n  mapping(uint => SwapLog) public swapLogs;\r\n  mapping(uint => BuyLog) public buyLogs;\r\n\r\n  event SwapFinished(\r\n    address user,\r\n    address indexed token1,\r\n    address indexed token2,\r\n    uint256 amount1,\r\n    uint256 amount2\r\n  );\r\n  event BuyToken(\r\n    address indexed user,\r\n    address indexed token,\r\n    uint256 amount\r\n  );\r\n  event ExpectedExchangeAmount(uint256 amount);\r\n\r\n  struct SwapLog {\r\n    address user;\r\n    address token1;\r\n    address token2;\r\n    uint256 amount1;\r\n    uint256 amount2;\r\n  }\r\n\r\n  struct BuyLog {\r\n    address user;\r\n    address token;\r\n    uint256 amount;\r\n  }\r\n\r\n  constructor() {\r\n    name = \"CAN01 & CAN02 Pair\";\r\n    fee = 3;\r\n    pair = address(this);\r\n    can01 = new CAN01(10);\r\n    can02 = new CAN02(20);\r\n  }\r\n\r\n  function swap(address _token1, address _token2, uint256 amount) public {\r\n    require(amount > 0, \"PAIR: amount is zero\");\r\n\r\n    ICAN token1 = ICAN(_token1);\r\n    ICAN token2 = ICAN(_token2);\r\n\r\n    amount = amount * (10 ** token1.decimals()) / token1.rates();\r\n\r\n    uint256 exchangeAmount = calcAmount(token1, token2, amount);\r\n    address buyer = msg.sender;\r\n\r\n    emit ExpectedExchangeAmount(exchangeAmount);\r\n\r\n    require(\r\n      token1.balanceOf(buyer) >= amount,\r\n      \"PAIR: token1 balance is low\"\r\n    );\r\n    require(\r\n      exchangeAmount > 0,\r\n      \"PAIR: exchangeAmount is zero\"\r\n    );\r\n    require(\r\n      token2.balanceOf(pair) >= exchangeAmount,\r\n      \"PAIR: token2 balance is low\"\r\n    );\r\n\r\n    token1.approve(pair, amount);\r\n    token1.transferFrom(buyer, pair, amount);\r\n    token2.transfer(buyer, exchangeAmount);\r\n\r\n    totalSwaps++;\r\n    swapLogs[totalSwaps] = SwapLog(\r\n      buyer,\r\n      address(token1),\r\n      address(token2),\r\n      amount,\r\n      exchangeAmount\r\n    );\r\n\r\n    emit SwapFinished(\r\n      buyer,\r\n      address(token1),\r\n      address(token2),\r\n      amount,\r\n      exchangeAmount\r\n    );\r\n  }\r\n\r\n  function buy(address _token, uint256 amount) public payable {\r\n    require(_token != address(0), \"PAIR: token is not valid\");\r\n    \r\n    ICAN token = ICAN(_token);\r\n\r\n    require(amount >= 0, \"PAIR: amount is zero\");\r\n\r\n    amount = amount * (10 ** token.decimals()) / token.rates();\r\n\r\n    require(token.balanceOf(pair) >= amount, \"PAIR: balance is low\");\r\n\r\n    address buyer = msg.sender;\r\n\r\n    require(msg.value >= amount, \"PAIR: value is low\");\r\n\r\n    token.transfer(buyer, amount);\r\n\r\n    totalBuys++;\r\n    BuyLog memory newLog = BuyLog(buyer, address(token), amount);\r\n    buyLogs[totalBuys] = newLog;\r\n\r\n    emit BuyToken(buyer, address(token), amount * token.rates() / (10 ** token.decimals()));\r\n  }\r\n\r\n  function calcAmount(\r\n    ICAN token1,\r\n    ICAN token2,\r\n    uint256 amount\r\n  ) private view returns (uint256) {\r\n    uint8 rate1 = token1.rates();\r\n    uint8 rate2 = token2.rates();\r\n    uint8 ratio;\r\n    uint256 worth;\r\n    uint256 exchangeAmount;\r\n\r\n    if (rate1 <= rate2) {\r\n      ratio = uint8(rate2 / rate1);\r\n      worth = uint256(ratio * amount);\r\n      exchangeAmount = uint256(worth - (worth * fee) / 1000);\r\n    } else {\r\n      ratio = uint8(rate1 / rate2);\r\n      worth = uint256(amount / ratio);\r\n      exchangeAmount = uint256(worth - (worth * fee) / 1000);\r\n    }\r\n\r\n    return exchangeAmount;\r\n  }\r\n\r\n  function balanceOf() public view returns (uint256 _can01, uint256 _can02) {\r\n    return (can01.balanceOf(pair), can02.balanceOf(pair));\r\n  }\r\n\r\n  function getLogCount() public view returns (uint buys, uint swaps) {\r\n    return (totalBuys, totalSwaps);\r\n  }\r\n\r\n  function getBuyLog(uint pos) public view returns (BuyLog memory) {\r\n    return buyLogs[pos];\r\n  }\r\n\r\n  function getSwapLog(uint pos) public view returns (SwapLog memory) {\r\n    return swapLogs[pos];\r\n  }\r\n}",
  "sourcePath": "E:\\Blockchain\\Ethereum\\Caniculaswap\\contracts\\Pair.sol",
  "compiler": {
    "name": "solc",
    "version": "0.8.12+commit.f00d7308.Emscripten.clang"
  },
  "schemaVersion": "3.4.4",
  "updatedAt": "2022-03-14T17:49:40.976Z",
  "networkType": "ethereum",
  "devdoc": {
    "kind": "dev",
    "methods": {},
    "version": 1
  },
  "userdoc": {
    "kind": "user",
    "methods": {},
    "version": 1
  }
}